:020000040000FA
:04000000FEEF7FF0A0
:10FF58000001AFEF7FF0B5EC7FF0B1EF7FF0FEEF7F
:10FF68007FF0C8EC7FF0DAEC7FF0BCEC7FF0120099
:10FF7800700E3901D96F000EDB6F000EDD6F020EB7
:10FF8800DF6F000EDE6F1200000E3901C06F000E29
:10FF9800C16F000EC26F000EC36F000EC46F000E5B
:10FFA800C56F000EC66F000EC76F1200000EBA6E46
:10FFB800000EBB6E000EBC6EC268C368C4683A010E
:10FFC800606950694069000E816F000E516F000E24
:10FFD800416F000E616F000E426F000E526F000EEF
:10FFE800626F436953696369446954696469080EB7
:08FFF800846F1200ACEF7FF0F2
:020000040020DA
:10000000FF0FFF0FFF0FFF0FFF0FFF0FFF0FFF0F80
:020000040030CA
:0A000000FAFFF7FF9FFFFFFFFFFF6D
:00000001FF
